{
  "contractName": "TransferManager",
  "abi": [
    {
      "constant": true,
      "inputs": [],
      "name": "securityWindow",
      "outputs": [
        {
          "name": "",
          "type": "uint256"
        }
      ],
      "payable": false,
      "stateMutability": "view",
      "type": "function"
    },
    {
      "constant": true,
      "inputs": [
        {
          "name": "_wallet",
          "type": "address"
        }
      ],
      "name": "getNonce",
      "outputs": [
        {
          "name": "nonce",
          "type": "uint256"
        }
      ],
      "payable": false,
      "stateMutability": "view",
      "type": "function"
    },
    {
      "constant": true,
      "inputs": [
        {
          "name": "_wallet",
          "type": "address"
        }
      ],
      "name": "getCurrentLimit",
      "outputs": [
        {
          "name": "_currentLimit",
          "type": "uint256"
        }
      ],
      "payable": false,
      "stateMutability": "view",
      "type": "function"
    },
    {
      "constant": false,
      "inputs": [
        {
          "name": "_wallet",
          "type": "address"
        },
        {
          "name": "_module",
          "type": "address"
        }
      ],
      "name": "addModule",
      "outputs": [],
      "payable": false,
      "stateMutability": "nonpayable",
      "type": "function"
    },
    {
      "constant": true,
      "inputs": [
        {
          "name": "_wallet",
          "type": "address"
        }
      ],
      "name": "getDailyUnspent",
      "outputs": [
        {
          "name": "_unspent",
          "type": "uint256"
        },
        {
          "name": "_periodEnd",
          "type": "uint64"
        }
      ],
      "payable": false,
      "stateMutability": "view",
      "type": "function"
    },
    {
      "constant": true,
      "inputs": [],
      "name": "securityPeriod",
      "outputs": [
        {
          "name": "",
          "type": "uint256"
        }
      ],
      "payable": false,
      "stateMutability": "view",
      "type": "function"
    },
    {
      "constant": true,
      "inputs": [],
      "name": "oldLimitManager",
      "outputs": [
        {
          "name": "",
          "type": "address"
        }
      ],
      "payable": false,
      "stateMutability": "view",
      "type": "function"
    },
    {
      "constant": true,
      "inputs": [],
      "name": "transferStorage",
      "outputs": [
        {
          "name": "",
          "type": "address"
        }
      ],
      "payable": false,
      "stateMutability": "view",
      "type": "function"
    },
    {
      "constant": false,
      "inputs": [
        {
          "name": "_token",
          "type": "address"
        }
      ],
      "name": "recoverToken",
      "outputs": [],
      "payable": false,
      "stateMutability": "nonpayable",
      "type": "function"
    },
    {
      "constant": true,
      "inputs": [
        {
          "name": "_wallet",
          "type": "address"
        }
      ],
      "name": "getPendingLimit",
      "outputs": [
        {
          "name": "_pendingLimit",
          "type": "uint256"
        },
        {
          "name": "_changeAfter",
          "type": "uint64"
        }
      ],
      "payable": false,
      "stateMutability": "view",
      "type": "function"
    },
    {
      "constant": false,
      "inputs": [
        {
          "name": "_wallet",
          "type": "address"
        },
        {
          "name": "_data",
          "type": "bytes"
        },
        {
          "name": "_nonce",
          "type": "uint256"
        },
        {
          "name": "_signatures",
          "type": "bytes"
        },
        {
          "name": "_gasPrice",
          "type": "uint256"
        },
        {
          "name": "_gasLimit",
          "type": "uint256"
        }
      ],
      "name": "execute",
      "outputs": [
        {
          "name": "success",
          "type": "bool"
        }
      ],
      "payable": false,
      "stateMutability": "nonpayable",
      "type": "function"
    },
    {
      "constant": true,
      "inputs": [],
      "name": "priceProvider",
      "outputs": [
        {
          "name": "",
          "type": "address"
        }
      ],
      "payable": false,
      "stateMutability": "view",
      "type": "function"
    },
    {
      "constant": true,
      "inputs": [
        {
          "name": "",
          "type": "address"
        }
      ],
      "name": "relayer",
      "outputs": [
        {
          "name": "nonce",
          "type": "uint256"
        }
      ],
      "payable": false,
      "stateMutability": "view",
      "type": "function"
    },
    {
      "constant": true,
      "inputs": [],
      "name": "isOnlyOwnerModule",
      "outputs": [
        {
          "name": "",
          "type": "bytes4"
        }
      ],
      "payable": false,
      "stateMutability": "pure",
      "type": "function"
    },
    {
      "constant": true,
      "inputs": [],
      "name": "defaultLimit",
      "outputs": [
        {
          "name": "",
          "type": "uint256"
        }
      ],
      "payable": false,
      "stateMutability": "view",
      "type": "function"
    },
    {
      "constant": true,
      "inputs": [
        {
          "name": "_wallet",
          "type": "address"
        }
      ],
      "name": "isLimitDisabled",
      "outputs": [
        {
          "name": "_limitDisabled",
          "type": "bool"
        }
      ],
      "payable": false,
      "stateMutability": "view",
      "type": "function"
    },
    {
      "inputs": [
        {
          "name": "_registry",
          "type": "address"
        },
        {
          "name": "_transferStorage",
          "type": "address"
        },
        {
          "name": "_guardianStorage",
          "type": "address"
        },
        {
          "name": "_priceProvider",
          "type": "address"
        },
        {
          "name": "_securityPeriod",
          "type": "uint256"
        },
        {
          "name": "_securityWindow",
          "type": "uint256"
        },
        {
          "name": "_defaultLimit",
          "type": "uint256"
        },
        {
          "name": "_oldLimitManager",
          "type": "address"
        }
      ],
      "payable": false,
      "stateMutability": "nonpayable",
      "type": "constructor"
    },
    {
      "anonymous": false,
      "inputs": [
        {
          "indexed": true,
          "name": "wallet",
          "type": "address"
        },
        {
          "indexed": true,
          "name": "target",
          "type": "address"
        },
        {
          "indexed": false,
          "name": "whitelistAfter",
          "type": "uint64"
        }
      ],
      "name": "AddedToWhitelist",
      "type": "event"
    },
    {
      "anonymous": false,
      "inputs": [
        {
          "indexed": true,
          "name": "wallet",
          "type": "address"
        },
        {
          "indexed": true,
          "name": "target",
          "type": "address"
        }
      ],
      "name": "RemovedFromWhitelist",
      "type": "event"
    },
    {
      "anonymous": false,
      "inputs": [
        {
          "indexed": true,
          "name": "wallet",
          "type": "address"
        },
        {
          "indexed": true,
          "name": "id",
          "type": "bytes32"
        },
        {
          "indexed": true,
          "name": "executeAfter",
          "type": "uint256"
        },
        {
          "indexed": false,
          "name": "token",
          "type": "address"
        },
        {
          "indexed": false,
          "name": "to",
          "type": "address"
        },
        {
          "indexed": false,
          "name": "amount",
          "type": "uint256"
        },
        {
          "indexed": false,
          "name": "data",
          "type": "bytes"
        }
      ],
      "name": "PendingTransferCreated",
      "type": "event"
    },
    {
      "anonymous": false,
      "inputs": [
        {
          "indexed": true,
          "name": "wallet",
          "type": "address"
        },
        {
          "indexed": true,
          "name": "id",
          "type": "bytes32"
        }
      ],
      "name": "PendingTransferExecuted",
      "type": "event"
    },
    {
      "anonymous": false,
      "inputs": [
        {
          "indexed": true,
          "name": "wallet",
          "type": "address"
        },
        {
          "indexed": true,
          "name": "id",
          "type": "bytes32"
        }
      ],
      "name": "PendingTransferCanceled",
      "type": "event"
    },
    {
      "anonymous": false,
      "inputs": [
        {
          "indexed": true,
          "name": "wallet",
          "type": "address"
        },
        {
          "indexed": true,
          "name": "newLimit",
          "type": "uint256"
        },
        {
          "indexed": true,
          "name": "startAfter",
          "type": "uint64"
        }
      ],
      "name": "LimitChanged",
      "type": "event"
    },
    {
      "anonymous": false,
      "inputs": [
        {
          "indexed": true,
          "name": "wallet",
          "type": "address"
        },
        {
          "indexed": true,
          "name": "token",
          "type": "address"
        },
        {
          "indexed": true,
          "name": "amount",
          "type": "uint256"
        },
        {
          "indexed": false,
          "name": "to",
          "type": "address"
        },
        {
          "indexed": false,
          "name": "data",
          "type": "bytes"
        }
      ],
      "name": "Transfer",
      "type": "event"
    },
    {
      "anonymous": false,
      "inputs": [
        {
          "indexed": true,
          "name": "wallet",
          "type": "address"
        },
        {
          "indexed": true,
          "name": "token",
          "type": "address"
        },
        {
          "indexed": false,
          "name": "amount",
          "type": "uint256"
        },
        {
          "indexed": false,
          "name": "spender",
          "type": "address"
        }
      ],
      "name": "Approved",
      "type": "event"
    },
    {
      "anonymous": false,
      "inputs": [
        {
          "indexed": true,
          "name": "wallet",
          "type": "address"
        },
        {
          "indexed": true,
          "name": "to",
          "type": "address"
        },
        {
          "indexed": false,
          "name": "amount",
          "type": "uint256"
        },
        {
          "indexed": false,
          "name": "data",
          "type": "bytes"
        }
      ],
      "name": "CalledContract",
      "type": "event"
    },
    {
      "anonymous": false,
      "inputs": [
        {
          "indexed": true,
          "name": "wallet",
          "type": "address"
        },
        {
          "indexed": true,
          "name": "to",
          "type": "address"
        },
        {
          "indexed": false,
          "name": "spender",
          "type": "address"
        },
        {
          "indexed": true,
          "name": "token",
          "type": "address"
        },
        {
          "indexed": false,
          "name": "amountApproved",
          "type": "uint256"
        },
        {
          "indexed": false,
          "name": "amountSpent",
          "type": "uint256"
        },
        {
          "indexed": false,
          "name": "data",
          "type": "bytes"
        }
      ],
      "name": "ApprovedAndCalledContract",
      "type": "event"
    },
    {
      "anonymous": false,
      "inputs": [
        {
          "indexed": true,
          "name": "wallet",
          "type": "address"
        },
        {
          "indexed": true,
          "name": "success",
          "type": "bool"
        },
        {
          "indexed": false,
          "name": "signedHash",
          "type": "bytes32"
        }
      ],
      "name": "TransactionExecuted",
      "type": "event"
    },
    {
      "anonymous": false,
      "inputs": [
        {
          "indexed": false,
          "name": "name",
          "type": "bytes32"
        }
      ],
      "name": "ModuleCreated",
      "type": "event"
    },
    {
      "anonymous": false,
      "inputs": [
        {
          "indexed": false,
          "name": "wallet",
          "type": "address"
        }
      ],
      "name": "ModuleInitialised",
      "type": "event"
    },
    {
      "constant": false,
      "inputs": [
        {
          "name": "_wallet",
          "type": "address"
        }
      ],
      "name": "init",
      "outputs": [],
      "payable": false,
      "stateMutability": "nonpayable",
      "type": "function"
    },
    {
      "constant": false,
      "inputs": [
        {
          "name": "_wallet",
          "type": "address"
        },
        {
          "name": "_token",
          "type": "address"
        },
        {
          "name": "_to",
          "type": "address"
        },
        {
          "name": "_amount",
          "type": "uint256"
        },
        {
          "name": "_data",
          "type": "bytes"
        }
      ],
      "name": "transferToken",
      "outputs": [],
      "payable": false,
      "stateMutability": "nonpayable",
      "type": "function"
    },
    {
      "constant": false,
      "inputs": [
        {
          "name": "_wallet",
          "type": "address"
        },
        {
          "name": "_token",
          "type": "address"
        },
        {
          "name": "_spender",
          "type": "address"
        },
        {
          "name": "_amount",
          "type": "uint256"
        }
      ],
      "name": "approveToken",
      "outputs": [],
      "payable": false,
      "stateMutability": "nonpayable",
      "type": "function"
    },
    {
      "constant": false,
      "inputs": [
        {
          "name": "_wallet",
          "type": "address"
        },
        {
          "name": "_contract",
          "type": "address"
        },
        {
          "name": "_value",
          "type": "uint256"
        },
        {
          "name": "_data",
          "type": "bytes"
        }
      ],
      "name": "callContract",
      "outputs": [],
      "payable": false,
      "stateMutability": "nonpayable",
      "type": "function"
    },
    {
      "constant": false,
      "inputs": [
        {
          "name": "_wallet",
          "type": "address"
        },
        {
          "name": "_token",
          "type": "address"
        },
        {
          "name": "_spender",
          "type": "address"
        },
        {
          "name": "_amount",
          "type": "uint256"
        },
        {
          "name": "_contract",
          "type": "address"
        },
        {
          "name": "_data",
          "type": "bytes"
        }
      ],
      "name": "approveTokenAndCallContract",
      "outputs": [],
      "payable": false,
      "stateMutability": "nonpayable",
      "type": "function"
    },
    {
      "constant": false,
      "inputs": [
        {
          "name": "_wallet",
          "type": "address"
        },
        {
          "name": "_target",
          "type": "address"
        }
      ],
      "name": "addToWhitelist",
      "outputs": [],
      "payable": false,
      "stateMutability": "nonpayable",
      "type": "function"
    },
    {
      "constant": false,
      "inputs": [
        {
          "name": "_wallet",
          "type": "address"
        },
        {
          "name": "_target",
          "type": "address"
        }
      ],
      "name": "removeFromWhitelist",
      "outputs": [],
      "payable": false,
      "stateMutability": "nonpayable",
      "type": "function"
    },
    {
      "constant": false,
      "inputs": [
        {
          "name": "_wallet",
          "type": "address"
        },
        {
          "name": "_token",
          "type": "address"
        },
        {
          "name": "_to",
          "type": "address"
        },
        {
          "name": "_amount",
          "type": "uint256"
        },
        {
          "name": "_data",
          "type": "bytes"
        },
        {
          "name": "_block",
          "type": "uint256"
        }
      ],
      "name": "executePendingTransfer",
      "outputs": [],
      "payable": false,
      "stateMutability": "nonpayable",
      "type": "function"
    },
    {
      "constant": false,
      "inputs": [
        {
          "name": "_wallet",
          "type": "address"
        },
        {
          "name": "_id",
          "type": "bytes32"
        }
      ],
      "name": "cancelPendingTransfer",
      "outputs": [],
      "payable": false,
      "stateMutability": "nonpayable",
      "type": "function"
    },
    {
      "constant": false,
      "inputs": [
        {
          "name": "_wallet",
          "type": "address"
        },
        {
          "name": "_newLimit",
          "type": "uint256"
        }
      ],
      "name": "changeLimit",
      "outputs": [],
      "payable": false,
      "stateMutability": "nonpayable",
      "type": "function"
    },
    {
      "constant": false,
      "inputs": [
        {
          "name": "_wallet",
          "type": "address"
        }
      ],
      "name": "disableLimit",
      "outputs": [],
      "payable": false,
      "stateMutability": "nonpayable",
      "type": "function"
    },
    {
      "constant": true,
      "inputs": [
        {
          "name": "_wallet",
          "type": "address"
        },
        {
          "name": "_target",
          "type": "address"
        }
      ],
      "name": "isWhitelisted",
      "outputs": [
        {
          "name": "_isWhitelisted",
          "type": "bool"
        }
      ],
      "payable": false,
      "stateMutability": "view",
      "type": "function"
    },
    {
      "constant": true,
      "inputs": [
        {
          "name": "_wallet",
          "type": "address"
        },
        {
          "name": "_id",
          "type": "bytes32"
        }
      ],
      "name": "getPendingTransfer",
      "outputs": [
        {
          "name": "_executeAfter",
          "type": "uint64"
        }
      ],
      "payable": false,
      "stateMutability": "view",
      "type": "function"
    },
    {
      "constant": true,
      "inputs": [
        {
          "name": "_msgHash",
          "type": "bytes32"
        },
        {
          "name": "_signature",
          "type": "bytes"
        }
      ],
      "name": "isValidSignature",
      "outputs": [
        {
          "name": "",
          "type": "bytes4"
        }
      ],
      "payable": false,
      "stateMutability": "view",
      "type": "function"
    },
    {
      "constant": true,
      "inputs": [
        {
          "name": "_data",
          "type": "bytes"
        },
        {
          "name": "_signature",
          "type": "bytes"
        }
      ],
      "name": "isValidSignature",
      "outputs": [
        {
          "name": "",
          "type": "bytes4"
        }
      ],
      "payable": false,
      "stateMutability": "view",
      "type": "function"
    }
  ],
  "bytecode": "0x608060405234801561001057600080fd5b506040516101008062004d5f833981018060405261010081101561003357600080fd5b5080516020808301516040808501516060860151608087015160a088015160c089015160e09099015160008054600160a060020a03808c16600160a060020a031992831617909255600180549288169290911691909117905585517f5472616e736665724d616e6167657200000000000000000000000000000000008082529651999a979995989497939692959394919385938c938b9391927f3019c8fc80239e3dff8f781212ae2004839c2cb61d6c70acd279ac65392145df9281900390910190a150505060045560088054600160a060020a03988916600160a060020a031991821617909155600980549689169682169690961790955560069390935550600755600a8054919094169116179091555050614c0980620001566000396000f3fe608060405234801561001057600080fd5b5060043610610201576000357c0100000000000000000000000000000000000000000000000000000000900480639be65a601161012c578063c9b5ef8e116100bf578063e26b013b1161008e578063e26b013b14610982578063f8d3277d1461098a578063f9f6499e146109b8578063fd6ac309146109de57610201565b8063c9b5ef8e1461086c578063d490da4d14610892578063d5e69ee91461089a578063e1ee38ec1461093957610201565b8063b20f3f37116100fb578063b20f3f37146107de578063b377a9d51461080a578063b6b3527214610836578063b888879e1461086457610201565b80639be65a601461067c578063a0aec105146106a2578063a3411c0a146106c8578063aacaaf88146106ee57610201565b806343cd5c7e116101a45780637cb8f8ba116101735780637cb8f8ba146106005780637cc0d9061461064857806395813db414610650578063961bfeee1461067457610201565b806343cd5c7e146104e6578063575182431461050c5780635a1db8c41461053a5780635ed4bf811461056857610201565b806319ab453c116101e057806319ab453c1461034057806320c13b0b146103665780632d0335ab146104285780632df546f41461044e57610201565b80626fda351461020657806312ef080d146102205780631626ba7e1461025e575b600080fd5b61020e610a6e565b60408051918252519081900360200190f35b61025c6004803603608081101561023657600080fd5b50600160a060020a03813581169160208101358216916040820135169060600135610a74565b005b61030b6004803603604081101561027457600080fd5b8135919081019060408101602082013564010000000081111561029657600080fd5b8201836020820111156102a857600080fd5b803590602001918460018302840111640100000000831117156102ca57600080fd5b91908080601f016020809104026020016040519081016040528093929190818152602001838380828437600092019190915250929550610d9d945050505050565b604080517fffffffff000000000000000000000000000000000000000000000000000000009092168252519081900360200190f35b61025c6004803603602081101561035657600080fd5b5035600160a060020a0316610ea4565b61030b6004803603604081101561037c57600080fd5b81019060208101813564010000000081111561039757600080fd5b8201836020820111156103a957600080fd5b803590602001918460018302840111640100000000831117156103cb57600080fd5b9193909290916020810190356401000000008111156103e957600080fd5b8201836020820111156103fb57600080fd5b8035906020019184600183028401116401000000008311171561041d57600080fd5b5090925090506114a0565b61020e6004803603602081101561043e57600080fd5b5035600160a060020a0316611554565b61025c600480360360a081101561046457600080fd5b600160a060020a03823581169260208101358216926040820135909216916060820135919081019060a0810160808201356401000000008111156104a757600080fd5b8201836020820111156104b957600080fd5b803590602001918460018302840111640100000000831117156104db57600080fd5b50909250905061156f565b61020e600480360360208110156104fc57600080fd5b5035600160a060020a0316611925565b61025c6004803603604081101561052257600080fd5b50600160a060020a038135811691602001351661199c565b61025c6004803603604081101561055057600080fd5b50600160a060020a0381358116916020013516611c33565b61025c600480360360c081101561057e57600080fd5b600160a060020a03823581169260208101358216926040820135909216916060820135919081019060a0810160808201356401000000008111156105c157600080fd5b8201836020820111156105d357600080fd5b803590602001918460018302840111640100000000831117156105f557600080fd5b919350915035611dee565b6106266004803603602081101561061657600080fd5b5035600160a060020a0316612153565b6040805192835267ffffffffffffffff90911660208301528051918290030190f35b61020e612212565b610658612218565b60408051600160a060020a039092168252519081900360200190f35b610658612227565b61025c6004803603602081101561069257600080fd5b5035600160a060020a0316612236565b610626600480360360208110156106b857600080fd5b5035600160a060020a0316612369565b61025c600480360360208110156106de57600080fd5b5035600160a060020a03166123e5565b6107ca600480360360c081101561070457600080fd5b600160a060020a03823516919081019060408101602082013564010000000081111561072f57600080fd5b82018360208201111561074157600080fd5b8035906020019184600183028401116401000000008311171561076357600080fd5b9193909282359260408101906020013564010000000081111561078557600080fd5b82018360208201111561079757600080fd5b803590602001918460018302840111640100000000831117156107b957600080fd5b919350915080359060200135612534565b604080519115158252519081900360200190f35b61025c600480360360408110156107f457600080fd5b50600160a060020a038135169060200135612812565b61025c6004803603604081101561082057600080fd5b50600160a060020a03813516906020013561295d565b6107ca6004803603604081101561084c57600080fd5b50600160a060020a0381358116916020013516612b68565b610658612c1a565b61020e6004803603602081101561088257600080fd5b5035600160a060020a0316612c29565b61030b612c3b565b61025c600480360360c08110156108b057600080fd5b600160a060020a0382358116926020810135821692604082013583169260608301359260808101359091169181019060c0810160a08201356401000000008111156108fa57600080fd5b82018360208201111561090c57600080fd5b8035906020019184600183028401116401000000008311171561092e57600080fd5b509092509050612c5f565b6109656004803603604081101561094f57600080fd5b50600160a060020a038135169060200135612efc565b6040805167ffffffffffffffff9092168252519081900360200190f35b61020e612f23565b61025c600480360360408110156109a057600080fd5b50600160a060020a0381358116916020013516612f29565b6107ca600480360360208110156109ce57600080fd5b5035600160a060020a0316613191565b61025c600480360360808110156109f457600080fd5b600160a060020a03823581169260208101359091169160408201359190810190608081016060820135640100000000811115610a2f57600080fd5b820183602082011115610a4157600080fd5b80359060200191846001830284011164010000000083111715610a6357600080fd5b5090925090506131b6565b60075481565b8333301480610a885750610a8881336133db565b1515610ac85760405160e560020a62461bcd028152600401808060200182810382526023815260200180614bbb6023913960400191505060405180910390fd5b600154604080517f4a4fbeec000000000000000000000000000000000000000000000000000000008152600160a060020a038089166004830152915188939290921691634a4fbeec91602480820192602092909190829003018186803b158015610b3157600080fd5b505afa158015610b45573d6000803e3d6000fd5b505050506040513d6020811015610b5b57600080fd5b505115610bb2576040805160e560020a62461bcd02815260206004820152601b60248201527f424d3a2077616c6c6574206d75737420626520756e6c6f636b65640000000000604482015290519081900360640190fd5b610bbc8685612b68565b15610bd257610bcd86868686613479565b610d95565b604080517fdd62ed3e000000000000000000000000000000000000000000000000000000008152600160a060020a0388811660048301528681166024830152915160009288169163dd62ed3e916044808301926020929190829003018186803b158015610c3e57600080fd5b505afa158015610c52573d6000803e3d6000fd5b505050506040513d6020811015610c6857600080fd5b50519050808411610c8457610c7f87878787613479565b610d93565b600954604080517fce55c85200000000000000000000000000000000000000000000000000000000815283870360048201819052600160a060020a038a8116602484015292519093600093169163ce55c852916044808301926020929190829003018186803b158015610cf657600080fd5b505afa158015610d0a573d6000803e3d6000fd5b505050506040513d6020811015610d2057600080fd5b50519050610d2e898261354d565b1515610d84576040805160e560020a62461bcd02815260206004820152601d60248201527f544d3a20417070726f76652061626f7665206461696c79206c696d6974000000604482015290519081900360640190fd5b610d9089898989613479565b50505b505b505050505050565b8051600090604114610df9576040805160e560020a62461bcd02815260206004820152601c60248201527f544d3a20696e76616c6964207369676e6174757265206c656e67746800000000604482015290519081900360640190fd5b6000610e0784846000613604565b9050610e1333826133db565b1515610e69576040805160e560020a62461bcd02815260206004820152601260248201527f544d3a20496e76616c6964207369676e65720000000000000000000000000000604482015290519081900360640190fd5b5050604080517f697356616c69645369676e617475726528627974657333322c627974657329008152905190819003601f0190205b92915050565b8033600160a060020a03821614610f05576040805160e560020a62461bcd02815260206004820152601960248201527f424d3a2063616c6c6572206d7573742062652077616c6c657400000000000000604482015290519081900360640190fd5b604080517f697356616c69645369676e61747572652862797465732c6279746573290000008152815190819003601d0181207f13da30b20000000000000000000000000000000000000000000000000000000082523060048301527fffffffff000000000000000000000000000000000000000000000000000000001660248201529051600160a060020a038416916313da30b291604480830192600092919082900301818387803b158015610fba57600080fd5b505af1158015610fce573d6000803e3d6000fd5b5050604080517f697356616c69645369676e617475726528627974657333322c627974657329008152815190819003601f0181207f13da30b20000000000000000000000000000000000000000000000000000000082523060048301527fffffffff000000000000000000000000000000000000000000000000000000001660248201529051600160a060020a03861693506313da30b29250604480830192600092919082900301818387803b15801561108757600080fd5b505af115801561109b573d6000803e3d6000fd5b5050600a54600160a060020a0316151591506110c19050576110bc826136af565b61149c565b600a54604080517f43cd5c7e000000000000000000000000000000000000000000000000000000008152600160a060020a038581166004830152915160009392909216916343cd5c7e91602480820192602092909190829003018186803b15801561112b57600080fd5b505afa15801561113f573d6000803e3d6000fd5b505050506040513d602081101561115557600080fd5b5051600a54604080517fa0aec105000000000000000000000000000000000000000000000000000000008152600160a060020a03878116600483015282519495506000948594919091169263a0aec1059260248082019391829003018186803b1580156111c157600080fd5b505afa1580156111d5573d6000803e3d6000fd5b505050506040513d60408110156111eb57600080fd5b50805160209091015190925090508215801561120f575067ffffffffffffffff8116155b156112255761121d856136af565b50505061149c565b8183141561127557600160a060020a038516600090815260036020526040902080546fffffffffffffffffffffffffffffffff19166fffffffffffffffffffffffffffffffff8516179055611325565b604080516060810182526fffffffffffffffffffffffffffffffff8086168252848116602080840191825267ffffffffffffffff808716858701908152600160a060020a038c1660009081526003909352959091209351845492518416700100000000000000000000000000000000029084166fffffffffffffffffffffffffffffffff19909316929092179092161782559151600190910180549190921667ffffffffffffffff199091161790555b600a54604080517f7cb8f8ba000000000000000000000000000000000000000000000000000000008152600160a060020a03888116600483015282516000948594921692637cb8f8ba926024808301939192829003018186803b15801561138b57600080fd5b505afa15801561139f573d6000803e3d6000fd5b505050506040513d60408110156113b557600080fd5b50805160209091015190925090504267ffffffffffffffff82161115610d935760408051808201909152806113f0878563ffffffff61378d16565b6fffffffffffffffffffffffffffffffff908116825267ffffffffffffffff938416602092830152600160a060020a038a166000908152600383526040902083516002909101805494909301516fffffffffffffffffffffffffffffffff199094169116177fffffffffffffffff0000000000000000ffffffffffffffffffffffffffffffff167001000000000000000000000000000000009290931691909102919091179055505050505b5050565b60008085856040516020018083838082843780830192505050925050506040516020818303038152906040528051906020012090506115158185858080601f016020809104026020016040519081016040528093929190818152602001838380828437600092019190915250610d9d92505050565b5050604080517f697356616c69645369676e61747572652862797465732c6279746573290000008152905190819003601d01902090505b949350505050565b600160a060020a031660009081526002602052604090205490565b8533301480611583575061158381336133db565b15156115c35760405160e560020a62461bcd028152600401808060200182810382526023815260200180614bbb6023913960400191505060405180910390fd5b600154604080517f4a4fbeec000000000000000000000000000000000000000000000000000000008152600160a060020a03808b16600483015291518a939290921691634a4fbeec91602480820192602092909190829003018186803b15801561162c57600080fd5b505afa158015611640573d6000803e3d6000fd5b505050506040513d602081101561165657600080fd5b5051156116ad576040805160e560020a62461bcd02815260206004820152601b60248201527f424d3a2077616c6c6574206d75737420626520756e6c6f636b65640000000000604482015290519081900360640190fd5b6116b78887612b68565b15611704576116ff8888888888888080601f0160208091040260200160405190810160405280939291908181526020018383808284376000920191909152506137a292505050565b61191b565b6000600160a060020a03881673eeeeeeeeeeeeeeeeeeeeeeeeeeeeeeeeeeeeeeee146117c857600954604080517fce55c85200000000000000000000000000000000000000000000000000000000815260048101899052600160a060020a038b811660248301529151919092169163ce55c852916044808301926020929190829003018186803b15801561179757600080fd5b505afa1580156117ab573d6000803e3d6000fd5b505050506040513d60208110156117c157600080fd5b50516117ca565b855b90506117d6898261354d565b156118235761181e8989898989898080601f0160208091040260200160405190810160405280939291908181526020018383808284376000920191909152506137a292505050565b610d90565b60008061186b60008c8c8c8c8c8c8080601f01602080910402602001604051908101604052809392919081815260200183838082843760009201919091525061393d92505050565b9150915080828c600160a060020a03167fc63146cfd39cd6097f6e314e8595c4554faf95175b45c6215517903c12e765d98d8d8d8d8d6040518086600160a060020a0316600160a060020a0316815260200185600160a060020a0316600160a060020a03168152602001848152602001806020018281038252848482818152602001925080828437600083820152604051601f909101601f19169092018290039850909650505050505050a45050505b5050505050505050565b600160a060020a038116600090815260036020526040812080546001820154611983916fffffffffffffffffffffffffffffffff80821692700100000000000000000000000000000000909204169067ffffffffffffffff16613b23565b6fffffffffffffffffffffffffffffffff169392505050565b81333014806119b057506119b081336133db565b15156119f05760405160e560020a62461bcd028152600401808060200182810382526023815260200180614bbb6023913960400191505060405180910390fd5b600154604080517f4a4fbeec000000000000000000000000000000000000000000000000000000008152600160a060020a038087166004830152915186939290921691634a4fbeec91602480820192602092909190829003018186803b158015611a5957600080fd5b505afa158015611a6d573d6000803e3d6000fd5b505050506040513d6020811015611a8357600080fd5b505115611ada576040805160e560020a62461bcd02815260206004820152601b60248201527f424d3a2077616c6c6574206d75737420626520756e6c6f636b65640000000000604482015290519081900360640190fd5b611ae48484612b68565b15611b39576040805160e560020a62461bcd02815260206004820152601e60248201527f54543a2074617267657420616c72656164792077686974656c69737465640000604482015290519081900360640190fd5b6000611b5060065442613b5b90919063ffffffff16565b600854604080517f80bfbe68000000000000000000000000000000000000000000000000000000008152600160a060020a03898116600483015288811660248301526044820185905291519394509116916380bfbe689160648082019260009290919082900301818387803b158015611bc857600080fd5b505af1158015611bdc573d6000803e3d6000fd5b50506040805167ffffffffffffffff851681529051600160a060020a038089169450891692507f1f57f9641d3e8733ed672fef5ac85464bd7215ef2f21e83428e8408248b13dcd9181900360200190a35050505050565b8133301480611c475750611c4781336133db565b1515611c875760405160e560020a62461bcd028152600401808060200182810382526023815260200180614bbb6023913960400191505060405180910390fd5b600054604080517f0bcd4ebb000000000000000000000000000000000000000000000000000000008152600160a060020a03858116600483015291519190921691630bcd4ebb916024808301926020929190829003018186803b158015611ced57600080fd5b505afa158015611d01573d6000803e3d6000fd5b505050506040513d6020811015611d1757600080fd5b50511515611d6f576040805160e560020a62461bcd02815260206004820152601c60248201527f424d3a206d6f64756c65206973206e6f74207265676973746572656400000000604482015290519081900360640190fd5b604080517f1f17732d000000000000000000000000000000000000000000000000000000008152600160a060020a03848116600483015260016024830152915191851691631f17732d9160448082019260009290919082900301818387803b158015611dda57600080fd5b505af1158015610d93573d6000803e3d6000fd5b600154604080517f4a4fbeec000000000000000000000000000000000000000000000000000000008152600160a060020a03808b16600483015291518a939290921691634a4fbeec91602480820192602092909190829003018186803b158015611e5757600080fd5b505afa158015611e6b573d6000803e3d6000fd5b505050506040513d6020811015611e8157600080fd5b505115611ed8576040805160e560020a62461bcd02815260206004820152601b60248201527f424d3a2077616c6c6574206d75737420626520756e6c6f636b65640000000000604482015290519081900360640190fd5b60008088888888888860405160200180886000811115611ef457fe5b60ff167f010000000000000000000000000000000000000000000000000000000000000002815260010187600160a060020a0316600160a060020a03166c0100000000000000000000000002815260140186600160a060020a0316600160a060020a03166c01000000000000000000000000028152601401858152602001848480828437808301925050508281526020019750505050505050506040516020818303038152906040528051906020012090506000600560008b600160a060020a0316600160a060020a03168152602001908152602001600020600001600083815260200190815260200160002054905060008111151561203e576040805160e560020a62461bcd02815260206004820152601c60248201527f54543a20756e6b6e6f776e2070656e64696e67207472616e7366657200000000604482015290519081900360640190fd5b600061205560075483613b5b90919063ffffffff16565b90504282111580156120675750804211155b15156120a75760405160e560020a62461bcd02815260040180806020018281038252602c815260200180614b8f602c913960400191505060405180910390fd5b600160a060020a038b1660009081526005602090815260408083208684528252808320929092558151601f8901829004820281018201909252878252612110918d918d918d918d91908d908d90819084018382808284376000920191909152506137a292505050565b6040518390600160a060020a038d16907f53d984c4cd3917405bdcc3baabad7c1269dd3baf7c2c53ca571d8d7de9629bc990600090a35050505050505050505050565b600080600061216184611925565b600160a060020a0385166000908152600360205260409020600201805491925090700100000000000000000000000000000000900467ffffffffffffffff164211156121b757819350426201518001925061220b565b805467ffffffffffffffff70010000000000000000000000000000000082041693506fffffffffffffffffffffffffffffffff1682111561220b5780546fffffffffffffffffffffffffffffffff16820393505b5050915091565b60065481565b600a54600160a060020a031681565b600854600160a060020a031681565b604080517f70a082310000000000000000000000000000000000000000000000000000000081523060048201529051600091600160a060020a038416916370a0823191602480820192602092909190829003018186803b15801561229957600080fd5b505afa1580156122ad573d6000803e3d6000fd5b505050506040513d60208110156122c357600080fd5b505160008054604080517fa9059cbb000000000000000000000000000000000000000000000000000000008152600160a060020a0392831660048201526024810185905290519394509085169263a9059cbb92604480840193602093929083900390910190829087803b15801561233957600080fd5b505af115801561234d573d6000803e3d6000fd5b505050506040513d602081101561236357600080fd5b50505050565b600160a060020a0381166000908152600360205260408120600181015482919067ffffffffffffffff1642106123a1576000806123db565b805460018201547001000000000000000000000000000000009091046fffffffffffffffffffffffffffffffff169067ffffffffffffffff165b9250925050915091565b80333014806123f957506123f981336133db565b15156124395760405160e560020a62461bcd028152600401808060200182810382526023815260200180614bbb6023913960400191505060405180910390fd5b600154604080517f4a4fbeec000000000000000000000000000000000000000000000000000000008152600160a060020a038086166004830152915185939290921691634a4fbeec91602480820192602092909190829003018186803b1580156124a257600080fd5b505afa1580156124b6573d6000803e3d6000fd5b505050506040513d60208110156124cc57600080fd5b505115612523576040805160e560020a62461bcd02815260206004820152601b60248201527f424d3a2077616c6c6574206d75737420626520756e6c6f636b65640000000000604482015290519081900360640190fd5b61252f83600654613b6d565b505050565b6000805a90506000612584308c60008d8d8080601f0160208091040260200160405190810160405280939291908181526020018383808284376000920191909152508f92508c91508b9050613b88565b90506125918b8983613ccb565b15156125e7576040805160e560020a62461bcd02815260206004820152601560248201527f524d3a204475706c696361746520726571756573740000000000000000000000604482015290519081900360640190fd5b6126278b8b8b8080601f016020809104026020016040519081016040528093929190818152602001838380828437600092019190915250613cd792505050565b15156126675760405160e560020a62461bcd02815260040180806020018281038252604a815260200180614b22604a913960600191505060405180910390fd5b60006126a98c8c8c8080601f016020809104026020016040519081016040528093929190818152602001838380828437600092019190915250613d4b92505050565b9050604181028714156127c1576126c28c868884613d53565b156127c15780158061274557506127458c8c8c8080601f01602080910402602001604051908101604052809392919081815260200183838082843760009201919091525050604080516020601f8f018190048102820181019092528d815288935091508d908d9081908401838280828437600092019190915250613e4292505050565b156127c15730600160a060020a03168b8b604051808383808284376040519201945060009350909150508083038183865af19150503d80600081146127a6576040519150601f19603f3d011682016040523d82523d6000602084013e6127ab565b606091505b5050809450506127c18c5a850388888533613e67565b60408051838152905185151591600160a060020a038f16917f6bb0b384ce772133df63560651bc8c727c53306cec1d51e2cbf8ea35fb8f2ec19181900360200190a350505098975050505050505050565b8133301480612826575061282681336133db565b15156128665760405160e560020a62461bcd028152600401808060200182810382526023815260200180614bbb6023913960400191505060405180910390fd5b600154604080517f4a4fbeec000000000000000000000000000000000000000000000000000000008152600160a060020a038087166004830152915186939290921691634a4fbeec91602480820192602092909190829003018186803b1580156128cf57600080fd5b505afa1580156128e3573d6000803e3d6000fd5b505050506040513d60208110156128f957600080fd5b505115612950576040805160e560020a62461bcd02815260206004820152601b60248201527f424d3a2077616c6c6574206d75737420626520756e6c6f636b65640000000000604482015290519081900360640190fd5b6123638484600654613ec6565b8133301480612971575061297181336133db565b15156129b15760405160e560020a62461bcd028152600401808060200182810382526023815260200180614bbb6023913960400191505060405180910390fd5b600154604080517f4a4fbeec000000000000000000000000000000000000000000000000000000008152600160a060020a038087166004830152915186939290921691634a4fbeec91602480820192602092909190829003018186803b158015612a1a57600080fd5b505afa158015612a2e573d6000803e3d6000fd5b505050506040513d6020811015612a4457600080fd5b505115612a9b576040805160e560020a62461bcd02815260206004820152601b60248201527f424d3a2077616c6c6574206d75737420626520756e6c6f636b65640000000000604482015290519081900360640190fd5b600160a060020a038416600090815260056020908152604080832086845290915281205411612b14576040805160e560020a62461bcd02815260206004820152601a60248201527f54543a20756e6b6e6f776e2070656e64696e6720616374696f6e000000000000604482015290519081900360640190fd5b600160a060020a0384166000818152600560209081526040808320878452909152808220829055518592917f2914460f2e2359d06bcda666d815164a8e77d104644dfbe6360885abfa2da59c91a350505050565b600854604080517f13f4a0ea000000000000000000000000000000000000000000000000000000008152600160a060020a03858116600483015284811660248301529151600093849316916313f4a0ea916044808301926020929190829003018186803b158015612bd857600080fd5b505afa158015612bec573d6000803e3d6000fd5b505050506040513d6020811015612c0257600080fd5b5051905060008111801561154c575042119392505050565b600954600160a060020a031681565b60026020526000908152604090205481565b7fd490da4d0000000000000000000000000000000000000000000000000000000090565b8633301480612c735750612c7381336133db565b1515612cb35760405160e560020a62461bcd028152600401808060200182810382526023815260200180614bbb6023913960400191505060405180910390fd5b600154604080517f4a4fbeec000000000000000000000000000000000000000000000000000000008152600160a060020a03808c16600483015291518b939290921691634a4fbeec91602480820192602092909190829003018186803b158015612d1c57600080fd5b505afa158015612d30573d6000803e3d6000fd5b505050506040513d6020811015612d4657600080fd5b505115612d9d576040805160e560020a62461bcd02815260206004820152601b60248201527f424d3a2077616c6c6574206d75737420626520756e6c6f636b65640000000000604482015290519081900360640190fd5b612da78986614024565b612db18988612b68565b1515612eb857600954604080517fce55c85200000000000000000000000000000000000000000000000000000000815260048101899052600160a060020a038b811660248301529151600093929092169163ce55c85291604480820192602092909190829003018186803b158015612e2857600080fd5b505afa158015612e3c573d6000803e3d6000fd5b505050506040513d6020811015612e5257600080fd5b50519050612e608a8261354d565b1515612eb6576040805160e560020a62461bcd02815260206004820152601d60248201527f544d3a20417070726f76652061626f7665206461696c79206c696d6974000000604482015290519081900360640190fd5b505b610d90898989898989898080601f0160208091040260200160405190810160405280939291908181526020018383808284376000920191909152506141e092505050565b600160a060020a039091166000908152600560209081526040808320938352929052205490565b60045481565b8133301480612f3d5750612f3d81336133db565b1515612f7d5760405160e560020a62461bcd028152600401808060200182810382526023815260200180614bbb6023913960400191505060405180910390fd5b600154604080517f4a4fbeec000000000000000000000000000000000000000000000000000000008152600160a060020a038087166004830152915186939290921691634a4fbeec91602480820192602092909190829003018186803b158015612fe657600080fd5b505afa158015612ffa573d6000803e3d6000fd5b505050506040513d602081101561301057600080fd5b505115613067576040805160e560020a62461bcd02815260206004820152601b60248201527f424d3a2077616c6c6574206d75737420626520756e6c6f636b65640000000000604482015290519081900360640190fd5b6130718484612b68565b15156130c7576040805160e560020a62461bcd02815260206004820152601a60248201527f54543a20746172676574206e6f742077686974656c6973746564000000000000604482015290519081900360640190fd5b600854604080517f80bfbe68000000000000000000000000000000000000000000000000000000008152600160a060020a038781166004830152868116602483015260006044830181905292519316926380bfbe689260648084019391929182900301818387803b15801561313b57600080fd5b505af115801561314f573d6000803e3d6000fd5b5050604051600160a060020a038087169350871691507fd288ab5da2e1f37cf384a1565a3f905ad289b092fbdd31950dbbfef148c04f8890600090a350505050565b60008061319d83611925565b6fffffffffffffffffffffffffffffffff149392505050565b84333014806131ca57506131ca81336133db565b151561320a5760405160e560020a62461bcd028152600401808060200182810382526023815260200180614bbb6023913960400191505060405180910390fd5b600154604080517f4a4fbeec000000000000000000000000000000000000000000000000000000008152600160a060020a03808a166004830152915189939290921691634a4fbeec91602480820192602092909190829003018186803b15801561327357600080fd5b505afa158015613287573d6000803e3d6000fd5b505050506040513d602081101561329d57600080fd5b5051156132f4576040805160e560020a62461bcd02815260206004820152601b60248201527f424d3a2077616c6c6574206d75737420626520756e6c6f636b65640000000000604482015290519081900360640190fd5b6132fe8787614024565b6133088787612b68565b1561334f57610c7f87878787878080601f01602080910402602001604051908101604052809392919081815260200183838082843760009201919091525061459592505050565b613359878661354d565b15156133995760405160e560020a62461bcd028152600401808060200182810382526023815260200180614b6c6023913960400191505060405180910390fd5b610d9387878787878080601f01602080910402602001604051908101604052809392919081815260200183838082843760009201919091525061459592505050565b600081600160a060020a031683600160a060020a0316638da5cb5b6040518163ffffffff167c010000000000000000000000000000000000000000000000000000000002815260040160206040518083038186803b15801561343c57600080fd5b505afa158015613450573d6000803e3d6000fd5b505050506040513d602081101561346657600080fd5b5051600160a060020a0316149392505050565b60408051600160a060020a038416602482015260448082018490528251808303909101815260649091019091526020810180517bffffffffffffffffffffffffffffffffffffffffffffffffffffffff167f095ea7b3000000000000000000000000000000000000000000000000000000001790526134fb858560008461465d565b5060408051838152600160a060020a038581166020830152825181881693918916927fdc47705473b4a899de6e16a740ecc86f2a65dc7dbb9eadd0a06ce5421a44e23092908290030190a35050505050565b600081151561355e57506001610e9e565b600160a060020a0383166000908152600360205260408120805460018201549192916135bf916fffffffffffffffffffffffffffffffff80821692700100000000000000000000000000000000909204169067ffffffffffffffff16613b23565b90506135de85826fffffffffffffffffffffffffffffffff16866148e0565b156135f9576135ee858286614992565b600192505050610e9e565b506000949350505050565b6041808202830160208101516040820151919092015160009260ff9190911691601b83148061363657508260ff16601c145b151561364157600080fd5b604080516000815260208082018084528a905260ff8616828401526060820185905260808201849052915160019260a0808401939192601f1981019281900390910190855afa158015613698573d6000803e3d6000fd5b5050506020604051035193505050505b9392505050565b8033600160a060020a03821614613710576040805160e560020a62461bcd02815260206004820152601960248201527f424d3a2063616c6c6572206d7573742062652077616c6c657400000000000000604482015290519081900360640190fd5b600160a060020a038216600090815260036020526040902080546fffffffffffffffffffffffffffffffff161580156137555750600181015467ffffffffffffffff16155b1561252f5760045481546fffffffffffffffffffffffffffffffff19166fffffffffffffffffffffffffffffffff9091161790555050565b60008282111561379c57600080fd5b50900390565b600160a060020a03841673eeeeeeeeeeeeeeeeeeeeeeeeeeeeeeeeeeeeeeee14156137e9576137e3858484602060405190810160405280600081525061465d565b5061386e565b60408051600160a060020a038516602482015260448082018590528251808303909101815260649091019091526020810180517bffffffffffffffffffffffffffffffffffffffffffffffffffffffff167fa9059cbb0000000000000000000000000000000000000000000000000000000017905261386b868660008461465d565b50505b8184600160a060020a031686600160a060020a03167fd5c97f2e041b2046be3b4337472f05720760a198f4d7d84980b7155eec7cca6f86856040518083600160a060020a0316600160a060020a0316815260200180602001828103825283818151815260200191508051906020019080838360005b838110156138fb5781810151838201526020016138e3565b50505050905090810190601f1680156139285780820380516001836020036101000a031916815260200191505b50935050505060405180910390a45050505050565b6000808786868686436040516020018087600081111561395957fe5b60ff167f010000000000000000000000000000000000000000000000000000000000000002815260010186600160a060020a0316600160a060020a03166c0100000000000000000000000002815260140185600160a060020a0316600160a060020a03166c0100000000000000000000000002815260140184815260200183805190602001908083835b60208310613a025780518252601f1990920191602091820191016139e3565b6001836020036101000a03801982511681845116808217855250505050505090500182815260200196505050505050506040516020818303038152906040528051906020012091506005600088600160a060020a0316600160a060020a031681526020019081526020016000206000016000838152602001908152602001600020546000141515613add576040805160e560020a62461bcd02815260206004820152601c60248201527f544d3a206475706c69636174652070656e64696e6720616374696f6e00000000604482015290519081900360640190fd5b600654613af190429063ffffffff613b5b16565b600160a060020a0390971660009081526005602090815260408083208584529091529020879055509694955050505050565b6000808267ffffffffffffffff16118015613b475750428267ffffffffffffffff16105b15613b535750816136a8565b509192915050565b6000828201838110156136a857600080fd5b61149c826fffffffffffffffffffffffffffffffff83613ec6565b6040517f190000000000000000000000000000000000000000000000000000000000000060208083018281526000602185018190526c01000000000000000000000000600160a060020a03808e16820260228801528c16026036860152604a85018a90528851909485938d938d938d938d938d938d938d939192606a909201918701908083835b60208310613c2e5780518252601f199092019160209182019101613c0f565b51815160209384036101000a600019018019909216911617905292019586525084810193909352506040808401919091528051808403820181526060840182528051908301207f19457468657265756d205369676e6564204d6573736167653a0a3332000000006080850152609c808501919091528151808503909101815260bc909301905281519101209e9d5050505050505050505050505050565b600061154c8484614a9b565b60006024825110151515613d35576040805160e560020a62461bcd02815260206004820152601660248201527f524d3a20496e76616c6964206461746157616c6c657400000000000000000000604482015290519081900360640190fd5b5060240151600160a060020a0391821691161490565b600192915050565b60008083118015613d645750600082115b8015613e2a575082840285600160a060020a0316311080613d975750613d9585613d8d87611925565b8587026148e0565b155b80613e2a5750604080517fd6eb1bbf0000000000000000000000000000000000000000000000000000000081523060048201529051600160a060020a0387169163d6eb1bbf916024808301926020929190829003018186803b158015613dfc57600080fd5b505afa158015613e10573d6000803e3d6000fd5b505050506040513d6020811015613e2657600080fd5b5051155b15613e375750600061154c565b506001949350505050565b600080613e5184846000613604565b9050613e5d86826133db565b9695505050505050565b618f088501600085118015613e7c5750600083115b8015613e885750838111155b15610d93573a851115613e9c573a02613e9f565b84025b613ea9878261354d565b5061191b878383602060405190810160405280600081525061465d565b600160a060020a0383166000908152600360205260408120600181015490919067ffffffffffffffff1681108015613f0d575060018201544267ffffffffffffffff909116105b613f2a5781546fffffffffffffffffffffffffffffffff16613f53565b815470010000000000000000000000000000000090046fffffffffffffffffffffffffffffffff165b82546fffffffffffffffffffffffffffffffff868116700100000000000000000000000000000000028184166fffffffffffffffffffffffffffffffff1990931692909217161783559050613fae428463ffffffff613b5b16565b60018301805467ffffffffffffffff191667ffffffffffffffff92909216919091179055613fdc4284613b5b565b67ffffffffffffffff168486600160a060020a03167f8a747eae44b6307d1b112c127968367d02d9f52ffef8533b3e899983ff2b1d4a60405160405180910390a45050505050565b81600160a060020a031681600160a060020a0316141580156140e1575081600160a060020a031663d6eb1bbf826040518263ffffffff167c01000000000000000000000000000000000000000000000000000000000281526004018082600160a060020a0316600160a060020a0316815260200191505060206040518083038186803b1580156140b357600080fd5b505afa1580156140c7573d6000803e3d6000fd5b505050506040513d60208110156140dd57600080fd5b5051155b801561418a5750600954604080517f837479c9000000000000000000000000000000000000000000000000000000008152600160a060020a0384811660048301529151919092169163837479c9916024808301926020929190829003018186803b15801561414e57600080fd5b505afa158015614162573d6000803e3d6000fd5b505050506040513d602081101561417857600080fd5b5051158061418a575061418a82613191565b151561149c576040805160e560020a62461bcd02815260206004820152601660248201527f544d3a20466f7262696464656e20636f6e747261637400000000000000000000604482015290519081900360640190fd5b604080517fdd62ed3e000000000000000000000000000000000000000000000000000000008152600160a060020a0388811660048301528681166024830152915160009288169163dd62ed3e916044808301926020929190829003018186803b15801561424c57600080fd5b505afa158015614260573d6000803e3d6000fd5b505050506040513d602081101561427657600080fd5b5051905060006142868286613b5b565b60408051600160a060020a038916602482015260448082018490528251808303909101815260649091019091526020810180517bffffffffffffffffffffffffffffffffffffffffffffffffffffffff167f095ea7b30000000000000000000000000000000000000000000000000000000017905290915061430b898960008461465d565b50614319898660008761465d565b50604080517fdd62ed3e000000000000000000000000000000000000000000000000000000008152600160a060020a038b81166004830152898116602483015291516000928b169163dd62ed3e916044808301926020929190829003018186803b15801561438657600080fd5b505afa15801561439a573d6000803e3d6000fd5b505050506040513d60208110156143b057600080fd5b5051905060006143c0848361378d565b90508781111561441a576040805160e560020a62461bcd02815260206004820181905260248201527f42543a20696e73756666696369656e7420616d6f756e7420666f722063616c6c604482015290519081900360640190fd5b8185146144a75760408051600160a060020a038b16602482015260448082018890528251808303909101815260649091019091526020810180517bffffffffffffffffffffffffffffffffffffffffffffffffffffffff167f095ea7b30000000000000000000000000000000000000000000000000000000017905292506144a58b8b60008661465d565b505b89600160a060020a031687600160a060020a03168c600160a060020a03167fb99e2a91cdfde581196884f6b42392a5000200a43dd5726d92d9405616fdffb98c8c868c6040518085600160a060020a0316600160a060020a0316815260200184815260200183815260200180602001828103825283818151815260200191508051906020019080838360005b8381101561454b578181015183820152602001614533565b50505050905090810190601f1680156145785780820380516001836020036101000a031916815260200191505b509550505050505060405180910390a45050505050505050505050565b6145a18484848461465d565b5082600160a060020a031684600160a060020a03167fbfbd7fb6c6d7dd1ef01d18a7e98333f084363d82d5ce600328e8b941a53d665484846040518083815260200180602001828103825283818151815260200191508051906020019080838360005b8381101561461c578181015183820152602001614604565b50505050905090810190601f1680156146495780820380516001836020036101000a031916815260200191505b50935050505060405180910390a350505050565b6060600085600160a060020a03168585856040516024018084600160a060020a0316600160a060020a0316815260200183815260200180602001828103825283818151815260200191508051906020019080838360005b838110156146cc5781810151838201526020016146b4565b50505050905090810190601f1680156146f95780820380516001836020036101000a031916815260200191505b5060408051601f198184030181529181526020820180517bffffffffffffffffffffffffffffffffffffffffffffffffffffffff167f8f6f033200000000000000000000000000000000000000000000000000000000178152905182519297509550859450925090508083835b602083106147855780518252601f199092019160209182019101614766565b6001836020036101000a0380198251168184511680821785525050505050509050019150506000604051808303816000865af19150503d80600081146147e7576040519150601f19603f3d011682016040523d82523d6000602084013e6147ec565b606091505b50925090508080156147ff575060008251115b1561486c5781806020019051602081101561481957600080fd5b81019080805164010000000081111561483157600080fd5b8201602081018481111561484457600080fd5b815164010000000081118282018710171561485e57600080fd5b509095506148d79350505050565b600082511115614880573d6000803e3d6000fd5b8015156148d7576040805160e560020a62461bcd02815260206004820152601a60248201527f424d3a2077616c6c657420696e766f6b65207265766572746564000000000000604482015290519081900360640190fd5b50949350505050565b60006fffffffffffffffffffffffffffffffff831415614902575060016136a8565b600160a060020a038416600090815260036020526040902060020180544270010000000000000000000000000000000090910467ffffffffffffffff161015614950575050818111156136a8565b80546fffffffffffffffffffffffffffffffff168301841080159061498a575080546fffffffffffffffffffffffffffffffff1683810110155b9150506136a8565b6fffffffffffffffffffffffffffffffff8281161461252f57600160a060020a038316600090815260036020526040902060020180544270010000000000000000000000000000000090910467ffffffffffffffff161015614a645780547fffffffffffffffff0000000000000000ffffffffffffffffffffffffffffffff1670010000000000000000000000000000000042620151800167ffffffffffffffff1602176fffffffffffffffffffffffffffffffff19166fffffffffffffffffffffffffffffffff8316178155612363565b80546fffffffffffffffffffffffffffffffff8082168401166fffffffffffffffffffffffffffffffff1990911617815550505050565b600160a060020a0382166000908152600260205260408120548211614ac257506000610e9e565b7001000000000000000000000000000000006fffffffffffffffffffffffffffffffff198316044361271001811115614aff576000915050610e9e565b5050600160a060020a039190911660009081526002602052604090205560019056fe524d3a207468652077616c6c657420617574686f72697a656420697320646966666572656e74207468656e2074686520746172676574206f66207468652072656c617965642064617461544d3a2043616c6c20636f6e74726163742061626f7665206461696c79206c696d697454543a207472616e73666572206f757473696465206f662074686520657865637574696f6e2077696e646f77424d3a206d75737420626520616e206f776e657220666f72207468652077616c6c6574a165627a7a723058201a1f262d518a9e605d3afcd8b46cc6204e6c6a962b66d01aebc87ffed175d4de0029",
  "source": "// Copyright (C) 2018  Argent Labs Ltd. <https://argent.xyz>\n\n// This program is free software: you can redistribute it and/or modify\n// it under the terms of the GNU General Public License as published by\n// the Free Software Foundation, either version 3 of the License, or\n// (at your option) any later version.\n\n// This program is distributed in the hope that it will be useful,\n// but WITHOUT ANY WARRANTY; without even the implied warranty of\n// MERCHANTABILITY or FITNESS FOR A PARTICULAR PURPOSE.  See the\n// GNU General Public License for more details.\n\n// You should have received a copy of the GNU General Public License\n// along with this program.  If not, see <http://www.gnu.org/licenses/>.\n\npragma solidity ^0.5.4;\nimport \"../wallet/BaseWallet.sol\";\nimport \"./common/BaseModule.sol\";\nimport \"./common/RelayerModule.sol\";\nimport \"./common/OnlyOwnerModule.sol\";\nimport \"./common/BaseTransfer.sol\";\nimport \"./common/LimitManager.sol\";\nimport \"./storage/TransferStorage.sol\";\nimport \"../infrastructure/TokenPriceProvider.sol\";\nimport \"../../lib/other/ERC20.sol\";\n\n/**\n * @title TransferManager\n * @dev Module to transfer and approve tokens (ETH or ERC20) or data (contract call) based on a security context (daily limit, whitelist, etc).\n * This module is the V2 of TokenTransfer.\n * @author Julien Niset - <julien@argent.xyz>\n */\ncontract TransferManager is BaseModule, RelayerModule, OnlyOwnerModule, BaseTransfer, LimitManager {\n\n    bytes32 constant NAME = \"TransferManager\";\n\n    bytes4 private constant ERC1271_ISVALIDSIGNATURE_BYTES = bytes4(keccak256(\"isValidSignature(bytes,bytes)\"));\n    bytes4 private constant ERC1271_ISVALIDSIGNATURE_BYTES32 = bytes4(keccak256(\"isValidSignature(bytes32,bytes)\"));\n\n    enum ActionType { Transfer }\n\n    using SafeMath for uint256;\n\n    struct TokenManagerConfig {\n        // Mapping between pending action hash and their timestamp\n        mapping (bytes32 => uint256) pendingActions;\n    }\n\n    // wallet specific storage\n    mapping (address => TokenManagerConfig) internal configs;\n\n    // The security period\n    uint256 public securityPeriod;\n    // The execution window\n    uint256 public securityWindow;\n    // The Token storage\n    TransferStorage public transferStorage;\n    // The Token price provider\n    TokenPriceProvider public priceProvider;\n    // The previous limit manager needed to migrate the limits\n    LimitManager public oldLimitManager;\n\n    // *************** Events *************************** //\n\n    event AddedToWhitelist(address indexed wallet, address indexed target, uint64 whitelistAfter);\n    event RemovedFromWhitelist(address indexed wallet, address indexed target);\n    event PendingTransferCreated(address indexed wallet, bytes32 indexed id, uint256 indexed executeAfter,\n    address token, address to, uint256 amount, bytes data);\n    event PendingTransferExecuted(address indexed wallet, bytes32 indexed id);\n    event PendingTransferCanceled(address indexed wallet, bytes32 indexed id);\n\n    // *************** Constructor ********************** //\n\n    constructor(\n        ModuleRegistry _registry,\n        TransferStorage _transferStorage,\n        GuardianStorage _guardianStorage,\n        address _priceProvider,\n        uint256 _securityPeriod,\n        uint256 _securityWindow,\n        uint256 _defaultLimit,\n        LimitManager _oldLimitManager\n    )\n        BaseModule(_registry, _guardianStorage, NAME)\n        LimitManager(_defaultLimit)\n        public\n    {\n        transferStorage = _transferStorage;\n        priceProvider = TokenPriceProvider(_priceProvider);\n        securityPeriod = _securityPeriod;\n        securityWindow = _securityWindow;\n        oldLimitManager = _oldLimitManager;\n    }\n\n    /**\n     * @dev Inits the module for a wallet by setting up the isValidSignature (EIP 1271)\n     * static call redirection from the wallet to the module and copying all the parameters\n     * of the daily limit from the previous implementation of the LimitManager module.\n     * @param _wallet The target wallet.\n     */\n    function init(BaseWallet _wallet) public onlyWallet(_wallet) {\n\n        // setup static calls\n        _wallet.enableStaticCall(address(this), ERC1271_ISVALIDSIGNATURE_BYTES);\n        _wallet.enableStaticCall(address(this), ERC1271_ISVALIDSIGNATURE_BYTES32);\n\n        // setup default limit for new deployment\n        if (address(oldLimitManager) == address(0)) {\n            super.init(_wallet);\n            return;\n        }\n        // get limit from previous LimitManager\n        uint256 current = oldLimitManager.getCurrentLimit(_wallet);\n        (uint256 pending, uint64 changeAfter) = oldLimitManager.getPendingLimit(_wallet);\n        // setup default limit for new wallets\n        if (current == 0 && changeAfter == 0) {\n            super.init(_wallet);\n            return;\n        }\n        // migrate existing limit for existing wallets\n        if (current == pending) {\n            limits[address(_wallet)].limit.current = uint128(current);\n        } else {\n            limits[address(_wallet)].limit = Limit(uint128(current), uint128(pending), changeAfter);\n        }\n        // migrate daily pending if we are within a rolling period\n        (uint256 unspent, uint64 periodEnd) = oldLimitManager.getDailyUnspent(_wallet);\n        // solium-disable-next-line security/no-block-members\n        if (periodEnd > now) {\n            limits[address(_wallet)].dailySpent = DailySpent(uint128(current.sub(unspent)), periodEnd);\n        }\n    }\n\n    // *************** External/Public Functions ********************* //\n\n    /**\n    * @dev lets the owner transfer tokens (ETH or ERC20) from a wallet.\n    * @param _wallet The target wallet.\n    * @param _token The address of the token to transfer.\n    * @param _to The destination address\n    * @param _amount The amoutn of token to transfer\n    * @param _data The data for the transaction\n    */\n    function transferToken(\n        BaseWallet _wallet,\n        address _token,\n        address _to,\n        uint256 _amount,\n        bytes calldata _data\n    )\n        external\n        onlyWalletOwner(_wallet)\n        onlyWhenUnlocked(_wallet)\n    {\n        if (isWhitelisted(_wallet, _to)) {\n            // transfer to whitelist\n            doTransfer(_wallet, _token, _to, _amount, _data);\n        } else {\n            uint256 etherAmount = (_token == ETH_TOKEN) ? _amount : priceProvider.getEtherValue(_amount, _token);\n            if (checkAndUpdateDailySpent(_wallet, etherAmount)) {\n                // transfer under the limit\n                doTransfer(_wallet, _token, _to, _amount, _data);\n            } else {\n                // transfer above the limit\n                (bytes32 id, uint256 executeAfter) = addPendingAction(ActionType.Transfer, _wallet, _token, _to, _amount, _data);\n                emit PendingTransferCreated(address(_wallet), id, executeAfter, _token, _to, _amount, _data);\n            }\n        }\n    }\n\n    /**\n    * @dev lets the owner approve an allowance of ERC20 tokens for a spender (dApp).\n    * @param _wallet The target wallet.\n    * @param _token The address of the token to transfer.\n    * @param _spender The address of the spender\n    * @param _amount The amount of tokens to approve\n    */\n    function approveToken(\n        BaseWallet _wallet,\n        address _token,\n        address _spender,\n        uint256 _amount\n    )\n        external\n        onlyWalletOwner(_wallet)\n        onlyWhenUnlocked(_wallet)\n    {\n        if (isWhitelisted(_wallet, _spender)) {\n            // approve to whitelist\n            doApproveToken(_wallet, _token, _spender, _amount);\n        } else {\n            // get current alowance\n            uint256 currentAllowance = ERC20(_token).allowance(address(_wallet), _spender);\n            if (_amount <= currentAllowance) {\n                // approve if we reduce the allowance\n                doApproveToken(_wallet, _token, _spender, _amount);\n            } else {\n                // check if delta is under the limit\n                uint delta = _amount - currentAllowance;\n                uint256 deltaInEth = priceProvider.getEtherValue(delta, _token);\n                require(checkAndUpdateDailySpent(_wallet, deltaInEth), \"TM: Approve above daily limit\");\n                // approve if under the limit\n                doApproveToken(_wallet, _token, _spender, _amount);\n            }\n        }\n    }\n\n    /**\n    * @dev lets the owner call a contract.\n    * @param _wallet The target wallet.\n    * @param _contract The address of the contract.\n    * @param _value The amount of ETH to transfer as part of call\n    * @param _data The encoded method data\n    */\n    function callContract(\n        BaseWallet _wallet,\n        address _contract,\n        uint256 _value,\n        bytes calldata _data\n    )\n        external\n        onlyWalletOwner(_wallet)\n        onlyWhenUnlocked(_wallet)\n    {\n        // Make sure we don't call a module, the wallet itself, or a supported ERC20\n        authoriseContractCall(_wallet, _contract);\n\n        if (isWhitelisted(_wallet, _contract)) {\n            // call to whitelist\n            doCallContract(_wallet, _contract, _value, _data);\n        } else {\n            require(checkAndUpdateDailySpent(_wallet, _value), \"TM: Call contract above daily limit\");\n            // call under the limit\n            doCallContract(_wallet, _contract, _value, _data);\n        }\n    }\n\n    /**\n    * @dev lets the owner do an ERC20 approve followed by a call to a contract.\n    * We assume that the contract will pull the tokens and does not require ETH.\n    * @param _wallet The target wallet.\n    * @param _token The token to approve.\n    * @param _spender The address to approve.\n    * @param _amount The amount of ERC20 tokens to approve.\n    * @param _contract The address of the contract.\n    * @param _data The encoded method data\n    */\n    function approveTokenAndCallContract(\n        BaseWallet _wallet,\n        address _token,\n        address _spender,\n        uint256 _amount,\n        address _contract,\n        bytes calldata _data\n    )\n        external\n        onlyWalletOwner(_wallet)\n        onlyWhenUnlocked(_wallet)\n    {\n        // Make sure we don't call a module, the wallet itself, or a supported ERC20\n        authoriseContractCall(_wallet, _contract);\n\n        if (!isWhitelisted(_wallet, _spender)) {\n            // check if the amount is under the daily limit\n            // check the entire amount because the currently approved amount will be restored and should still count towards the daily limit\n            uint256 valueInEth = priceProvider.getEtherValue(_amount, _token);\n            require(checkAndUpdateDailySpent(_wallet, valueInEth), \"TM: Approve above daily limit\");\n        }\n\n        doApproveTokenAndCallContract(_wallet, _token, _spender, _amount, _contract, _data);\n    }\n\n    /**\n     * @dev Adds an address to the whitelist of a wallet.\n     * @param _wallet The target wallet.\n     * @param _target The address to add.\n     */\n    function addToWhitelist(\n        BaseWallet _wallet,\n        address _target\n    )\n        external\n        onlyWalletOwner(_wallet)\n        onlyWhenUnlocked(_wallet)\n    {\n        require(!isWhitelisted(_wallet, _target), \"TT: target already whitelisted\");\n        // solium-disable-next-line security/no-block-members\n        uint256 whitelistAfter = now.add(securityPeriod);\n        transferStorage.setWhitelist(_wallet, _target, whitelistAfter);\n        emit AddedToWhitelist(address(_wallet), _target, uint64(whitelistAfter));\n    }\n\n    /**\n     * @dev Removes an address from the whitelist of a wallet.\n     * @param _wallet The target wallet.\n     * @param _target The address to remove.\n     */\n    function removeFromWhitelist(\n        BaseWallet _wallet,\n        address _target\n    )\n        external\n        onlyWalletOwner(_wallet)\n        onlyWhenUnlocked(_wallet)\n    {\n        require(isWhitelisted(_wallet, _target), \"TT: target not whitelisted\");\n        transferStorage.setWhitelist(_wallet, _target, 0);\n        emit RemovedFromWhitelist(address(_wallet), _target);\n    }\n\n    /**\n    * @dev Executes a pending transfer for a wallet.\n    * The method can be called by anyone to enable orchestration.\n    * @param _wallet The target wallet.\n    * @param _token The token of the pending transfer.\n    * @param _to The destination address of the pending transfer.\n    * @param _amount The amount of token to transfer of the pending transfer.\n    * @param _data The data associated to the pending transfer.\n    * @param _block The block at which the pending transfer was created.\n    */\n    function executePendingTransfer(\n        BaseWallet _wallet,\n        address _token,\n        address _to,\n        uint _amount,\n        bytes calldata _data,\n        uint _block\n    )\n        external\n        onlyWhenUnlocked(_wallet)\n    {\n        bytes32 id = keccak256(abi.encodePacked(ActionType.Transfer, _token, _to, _amount, _data, _block));\n        uint executeAfter = configs[address(_wallet)].pendingActions[id];\n        require(executeAfter > 0, \"TT: unknown pending transfer\");\n        uint executeBefore = executeAfter.add(securityWindow);\n        // solium-disable-next-line security/no-block-members\n        require(executeAfter <= now && now <= executeBefore, \"TT: transfer outside of the execution window\");\n        delete configs[address(_wallet)].pendingActions[id];\n        doTransfer(_wallet, _token, _to, _amount, _data);\n        emit PendingTransferExecuted(address(_wallet), id);\n    }\n\n    function cancelPendingTransfer(\n        BaseWallet _wallet,\n        bytes32 _id\n    )\n        external\n        onlyWalletOwner(_wallet)\n        onlyWhenUnlocked(_wallet)\n    {\n        require(configs[address(_wallet)].pendingActions[_id] > 0, \"TT: unknown pending action\");\n        delete configs[address(_wallet)].pendingActions[_id];\n        emit PendingTransferCanceled(address(_wallet), _id);\n    }\n\n    /**\n     * @dev Lets the owner of a wallet change its daily limit.\n     * The limit is expressed in ETH. Changes to the limit take 24 hours.\n     * @param _wallet The target wallet.\n     * @param _newLimit The new limit.\n     */\n    function changeLimit(BaseWallet _wallet, uint256 _newLimit) external onlyWalletOwner(_wallet) onlyWhenUnlocked(_wallet) {\n        changeLimit(_wallet, _newLimit, securityPeriod);\n    }\n\n    /**\n     * @dev Convenience method to disable the limit\n     * The limit is disabled by setting it to an arbitrary large value.\n     * @param _wallet The target wallet.\n     */\n    function disableLimit(BaseWallet _wallet) external onlyWalletOwner(_wallet) onlyWhenUnlocked(_wallet) {\n        disableLimit(_wallet, securityPeriod);\n    }\n\n    /**\n    * @dev Checks if an address is whitelisted for a wallet.\n    * @param _wallet The target wallet.\n    * @param _target The address.\n    * @return true if the address is whitelisted.\n    */\n    function isWhitelisted(BaseWallet _wallet, address _target) public view returns (bool _isWhitelisted) {\n        uint whitelistAfter = transferStorage.getWhitelist(_wallet, _target);\n        // solium-disable-next-line security/no-block-members\n        return whitelistAfter > 0 && whitelistAfter < now;\n    }\n\n    /**\n    * @dev Gets the info of a pending transfer for a wallet.\n    * @param _wallet The target wallet.\n    * @param _id The pending transfer ID.\n    * @return the epoch time at which the pending transfer can be executed.\n    */\n    function getPendingTransfer(BaseWallet _wallet, bytes32 _id) external view returns (uint64 _executeAfter) {\n        _executeAfter = uint64(configs[address(_wallet)].pendingActions[_id]);\n    }\n\n    /**\n    * @dev Implementation of EIP 1271.\n    * Should return whether the signature provided is valid for the provided data.\n    * @param _data Arbitrary length data signed on the behalf of address(this)\n    * @param _signature Signature byte array associated with _data\n    */\n    function isValidSignature(bytes calldata _data, bytes calldata _signature) external view returns (bytes4) {\n        bytes32 msgHash = keccak256(abi.encodePacked(_data));\n        isValidSignature(msgHash, _signature);\n        return ERC1271_ISVALIDSIGNATURE_BYTES;\n    }\n\n    /**\n    * @dev Implementation of EIP 1271.\n    * Should return whether the signature provided is valid for the provided data.\n    * @param _msgHash Hash of a message signed on the behalf of address(this)\n    * @param _signature Signature byte array associated with _msgHash\n    */\n    function isValidSignature(bytes32 _msgHash, bytes memory _signature) public view returns (bytes4) {\n        require(_signature.length == 65, \"TM: invalid signature length\");\n        address signer = recoverSigner(_msgHash, _signature, 0);\n        require(isOwner(BaseWallet(msg.sender), signer), \"TM: Invalid signer\");\n        return ERC1271_ISVALIDSIGNATURE_BYTES32;\n    }\n\n    // *************** Internal Functions ********************* //\n\n    /**\n     * @dev Creates a new pending action for a wallet.\n     * @param _action The target action.\n     * @param _wallet The target wallet.\n     * @param _token The target token for the action.\n     * @param _to The recipient of the action.\n     * @param _amount The amount of token associated to the action.\n     * @param _data The data associated to the action.\n     * @return the identifier for the new pending action and the time when the action can be executed\n     */\n    function addPendingAction(\n        ActionType _action,\n        BaseWallet _wallet,\n        address _token,\n        address _to,\n        uint _amount,\n        bytes memory _data\n    )\n        internal\n        returns (bytes32 id, uint256 executeAfter)\n    {\n        id = keccak256(abi.encodePacked(_action, _token, _to, _amount, _data, block.number));\n        require(configs[address(_wallet)].pendingActions[id] == 0, \"TM: duplicate pending action\");\n        // solium-disable-next-line security/no-block-members\n        executeAfter = now.add(securityPeriod);\n        configs[address(_wallet)].pendingActions[id] = executeAfter;\n    }\n\n    /**\n    * @dev Make sure a contract call is not trying to call a module, the wallet itself, or a supported ERC20.\n    * @param _wallet The target wallet.\n    * @param _contract The address of the contract.\n     */\n    function authoriseContractCall(BaseWallet _wallet, address _contract) internal view {\n        require(\n            _contract != address(_wallet) && // not the wallet itself\n            !_wallet.authorised(_contract) && // not an authorised module\n            (priceProvider.cachedPrices(_contract) == 0 || isLimitDisabled(_wallet)), // not an ERC20 listed in the provider (or limit disabled)\n            \"TM: Forbidden contract\");\n    }\n\n    // *************** Implementation of RelayerModule methods ********************* //\n\n    // Overrides refund to add the refund in the daily limit.\n    function refund(BaseWallet _wallet, uint _gasUsed, uint _gasPrice, uint _gasLimit, uint _signatures, address _relayer) internal {\n        // 21000 (transaction) + 7620 (execution of refund) + 7324 (execution of updateDailySpent) + 672 to log the event + _gasUsed\n        uint256 amount = 36616 + _gasUsed;\n        if (_gasPrice > 0 && _signatures > 0 && amount <= _gasLimit) {\n            if (_gasPrice > tx.gasprice) {\n                amount = amount * tx.gasprice;\n            } else {\n                amount = amount * _gasPrice;\n            }\n            checkAndUpdateDailySpent(_wallet, amount);\n            invokeWallet(address(_wallet), _relayer, amount, EMPTY_BYTES);\n        }\n    }\n\n    // Overrides verifyRefund to add the refund in the daily limit.\n    function verifyRefund(BaseWallet _wallet, uint _gasUsed, uint _gasPrice, uint _signatures) internal view returns (bool) {\n        if (_gasPrice > 0 && _signatures > 0 && (\n            address(_wallet).balance < _gasUsed * _gasPrice ||\n            isWithinDailyLimit(_wallet, getCurrentLimit(_wallet), _gasUsed * _gasPrice) == false ||\n            _wallet.authorised(address(this)) == false\n        ))\n        {\n            return false;\n        }\n        return true;\n    }\n}\n",
  "sourcePath": "/Users/ovdbigge/argent/develop/contracts/modules/TransferManager.sol",
  "compiler": {
    "name": "solc",
    "version": "0.5.4+commit.9549d8ff.Emscripten.clang",
    "optimizer": true,
    "runs": 999
  },
  "schemaVersion": "2.3.1",
  "updatedAt": "2020-06-24T19:07:14.618Z"
}